:020000040800F2
:1000000058E6002049010008B9220008CD20000868
:10001000B5220008B50100084D36000800000000B8
:10002000000000000000000000000000FD3100089A
:10003000F501000800000000BD220008FF310008A3
:100040006301000863010008630100086301000800
:1000500063010008630100086301000863010008F0
:1000600063010008630100086301000863010008E0
:1000700063010008B901000863010008630100087A
:1000800063010008630100086301000863010008C0
:1000900063010008630100086301000863010008B0
:1000A00063010008630100086301000863010008A0
:1000B0007132000863010008630100086301000851
:1000C0006301000863010008630100086301000880
:1000D000630100083D360008630100086301000861
:1000E0006301000863010008630100086301000860
:1000F0006301000863010008630100086301000850
:10010000630100086301000863010008630100083F
:10011000630100086301000863010008630100082F
:10012000630100086301000863010008630100081F
:10013000DFF810D000F02CF800480047A736000880
:10014000AFF3008058E60020064880470648004785
:10015000FEE7FEE7FEE7FEE7FEE7FEE7FEE7FEE777
:10016000FEE7FEE76D32000831010008D2B201E07F
:1001700000F8012B491EFBD270470022F6E710B5AC
:1001800013460A4604461946FFF7F0FF204610BD05
:10019000064C074D06E0E06840F0010394E80700D4
:1001A00098471034AC42F6D3FFF7C6FFFCDE0008D8
:1001B0001CDF000800BFFEE710B5024800F01EF982
:1001C00010BD00008800002030B590F84050012498
:1001D000AC40C56B6C60046863604468102C04D14B
:1001E0000468A2600468E16003E00468A160046838
:1001F000E26030BD704772B600BFFEE701460022E4
:1002000091F82100022808D00420886300BF002054
:1002100081F8200000BF012070470868006820F0C6
:100220000E000B6818600868006820F001000B6879
:10023000186091F8403001209840CB6B5860012045
:1002400081F8210000BF002081F8200000BF104687
:10025000E2E7000070B50446002594F8210002286A
:1002600003D00420A0630125C1E02068006820F0CD
:100270000E00216808602068006820F001002168F5
:1002800008605C492068884252D95A497839206808
:10029000884201D1012047E05649643920688842EC
:1002A00001D1102040E0534950392068884201D1E3
:1002B000801539E04F493C392068884201D18014CB
:1002C00032E04C4928392068884202D14FF480300E
:1002D0002AE0484914392068884202D14FF480103E
:1002E00022E044492068884201D140041CE0424990
:1002F0002068884201D1012016E03F49143120686E
:10030000884201D110200FE03B4928312068884203
:1003100001D1801508E038493C312068884201D17C
:10032000801401E04FF480303349091F086051E028
:10033000304978392068884201D1012047E02D49B1
:1003400064392068884201D1102040E029495039A1
:100350002068884201D1801539E026493C3920685F
:10036000884201D1801432E022492839206888422D
:1003700002D14FF480302AE01E49143920688842A7
:1003800002D14FF4801022E01A492068884201D13E
:1003900040041CE018492068884201D1012016E081
:1003A000154914312068884201D110200FE012490C
:1003B00028312068884201D1801508E00E493C317F
:1003C0002068884201D1801401E04FF4803009494F
:1003D00080394860012084F8210000BF002084F8A3
:1003E000200000BF606B10B12046616B8847284633
:1003F00070BD0000800002400804024070B5044651
:10040000E06B05682068066894F840100420884076
:100410002840002875D006F004000028FAD0206893
:10042000006800F0200028B92068006820F004006F
:1004300021680860D5492068884254D9D349783961
:100440002068884201D1042049E0D04964392068FD
:10045000884201D1402042E0CC495039206888428E
:1004600001D100153BE0C9493C392068884202D1DE
:100470004FF4804033E0C54928392068884202D1D2
:100480004FF480202BE0C14914392068884202D102
:100490004FF4800023E0BD492068884201D1C004A8
:1004A0001DE0BB492068884201D1042017E0B8490B
:1004B00014312068884201D1402010E0B44928312D
:1004C0002068884201D1001509E0B1493C3120681B
:1004D000884202D14FF4804001E04FF48020AC49C3
:1004E000091F086054E0A94978392068884201D181
:1004F00004204AE0A54964392068884202D140209E
:1005000043E04CE0A14950392068884201D10015F0
:100510003BE09E493C392068884202D14FF480403C
:1005200033E09A4928392068884202D14FF480206C
:100530002BE0964914392068884202D14FF480009C
:1005400023E092492068884201D1C0041DE090490F
:100550002068884201D1042017E08D4914312068B9
:10056000884201D1402010E0894928312068884222
:1005700001D1001509E086493C312068884202D14A
:100580004FF4804001E04FF480208049803948607A
:10059000E06A002802D02046E16A8847F4E094F837
:1005A0004010022088402840002871D006F0020048
:1005B0000028FAD02068006800F0200040B92068C8
:1005C000006820F00A0021680860012084F82100FA
:1005D0006E492068884254D96C497839206888422D
:1005E00001D1022049E0694964392068884201D17B
:1005F000202042E0654950392068884201D14015E9
:100600003BE062493C392068884202D14FF40050F7
:1006100033E05E4928392068884202D14FF4003027
:100620002BE05A4914392068884202D14FF4001057
:1006300023E056492068884201D180041DE05449D6
:100640002068884201D1022017E051491431206806
:10065000884201D1202010E04D492831206888428D
:1006600001D1401509E04A493C312068884202D155
:100670004FF4005001E04FF400304549091F086075
:1006800054E0424978392068884202D102204AE089
:1006900057E03E4964392068884201D1202042E079
:1006A0003A4950392068884201D140153BE037492A
:1006B0003C392068884202D14FF4005033E033497E
:1006C00028392068884202D14FF400302BE02F49AE
:1006D00014392068884202D14FF4001023E02B49DE
:1006E0002068884201D180041DE0294920688842A1
:1006F00001D1022017E0264914312068884201D137
:10070000202010E0224928312068884201D140157C
:1007100009E01F493C312068884202D14FF4005063
:1007200001E04FF4003019498039486000BF0020D3
:1007300084F8200000BFA06A30B32046A16A884731
:1007400022E094F84010082088402840E0B106F0EC
:100750000800C8B12068006820F00E002168086019
:1007600094F8401001208840E16B48600120A063AC
:1007700084F8210000BF002084F8200000BF206B17
:1007800010B12046216B884770BD000080000240F8
:10079000080402400146002209B9012070471E4B9F
:1007A000086898420BD21D4B0868C01A1423B0FB8E
:1007B000F3F08000086419480838C8630AE0164B53
:1007C0000868C01A1423B0FBF3F0800008641248D4
:1007D0000838C863022081F821000868026843F6DF
:1007E000F0708243D1E901031843CB6818430B69C9
:1007F00018434B6918438B691843CB69184302436C
:100800000868026000208863012081F82100002030
:1008100081F8200000BFC1E7080402400800024040
:100820002DE9F04104460D4616461F464FF00008DC
:1008300000BF94F82000012802D10220BDE8F08119
:10084000012084F8200000BF94F8210001282CD159
:10085000022084F821000020A0632068006820F0B6
:100860000100216808603B46324629462046FFF7D2
:10087000ABFCE06A30B12068006840F00E002168EF
:1008800008600BE02068006820F004002168086020
:100890002068006840F00A0021680860206800684D
:1008A00040F001002168086006E000BF002084F8E5
:1008B000200000BF4FF002084046BFE770B5044675
:1008C00000F0C0F906462546681C10B104480078BF
:1008D000054400BF00F0B6F9801BA842FAD370BDF2
:1008E000280000202DE9F847024600239C467BE1C2
:1008F0004FF0010808FA03F4D1F8008008EA040078
:10090000A0427DD1DFF8F4A2D1F80480A8EB0A0957
:10091000D0453AD014DCB8F1030F50D009DCB8F15F
:10092000000F31D0B8F1010F1CD0B8F1020F49D13E
:1009300020E0B8F1110F18D0B8F1120F42D11EE02B
:10094000B9F5881F25D006DCB9F5803F20D0B9F570
:10095000801F37D11AE0B9F5001F18D0B9F5041F70
:1009600030D117E0D1F80CC02DE0D1F80C8008F19F
:10097000040C28E0D1F80C8008F1080C23E0D1F831
:100980000C8008F10C0C1EE000BF00BF00BF00BFD0
:1009900000BF00BFD1F80880B8F1000F02D14FF0BE
:1009A000040C0BE0D1F80880B8F1010F03D14FF02F
:1009B000080C146102E04FF0080C546103E04FF0A2
:1009C000000C00E000BF00BFFF2801D8904601E006
:1009D00002F104084646FF2802D84FEA830803E0E4
:1009E000A3F108084FEA88084746D6F800804FF080
:1009F0000F0909FA07F928EA09080CFA07F900E0D3
:100A00007AE048EA0908C6F80080D1F8048008F0C6
:100A10008058B8F1805F6FD100BFDFF8E481D8F86B
:100A2000188048F00108DFF8D891C9F81880C84646
:100A3000D8F8188008F00108CDF8008000BF00BF8A
:100A40004FEAB9384FEA930958F829504FEA8378AA
:100A50004FEA18794FF00F0808FA09F825EA080557
:100A6000DFF8A081424502D14FF0000824E0DFF812
:100A70009881424502D14FF001081DE0DFF88C81DA
:100A8000424502D14FF0020816E0DFF8848142456A
:100A900002D14FF003080FE0DFF87881424502D120
:100AA0004FF0040808E0DFF87081424502D14FF0B2
:100AB000050801E04FF006084FEA83794FEA1979FB
:100AC00008FA09F848EA0505DFF850814FEA93096A
:100AD00048F82950D1F8048008F48038B8F5803FF0
:100AE0000BD1DFF83C81D8F8008048EA0008DFF835
:100AF0003091C9F800800AE075E0DFF82481D8F869
:100B0000008028EA0008DFF81891C9F80080D1F8C1
:100B1000048008F40038B8F5003F0ED1DFF80081FA
:100B200008F10408D8F8008048EA0008DFF8F090DF
:100B300009F10409C9F800800DE0DFF8E48008F14C
:100B40000408D8F8008028EA0008DFF8D49009F1FA
:100B50000409C9F80080D1F8048008F48018B8F5B9
:100B6000801F0ED1DFF8B88008F10808D8F800809F
:100B700048EA0008DFF8A89009F10809C9F80080E0
:100B80000DE0DFF89C8008F10808D8F8008028EA1A
:100B90000008DFF88C9009F10809C9F80080D1F845
:100BA000048008F40018B8F5001F0ED1DFF870803B
:100BB00008F10C08D8F8008048EA0008DFF86090D7
:100BC00009F10C09C9F800800DE0DFF8548008F144
:100BD0000C08D8F8008028EA0008DFF8449009F1F2
:100BE0000C09C9F800805B1CD1F8008028FA03F8D2
:100BF000B8F1000F7FF47CAEBDE8F887000011105B
:100C00000010024000080140000C014000100140AB
:100C10000014014000180140001C01400800014080
:100C20000004014010B5C26821EA020302EA01048F
:100C300043EA0443036110BD0AB1016101E00B0402
:100C400003617047014800687047000020000020E1
:100C5000034800680349097808440149086070475F
:100C6000200000202800002010B50848006840F04F
:100C7000100006490860032000F0AAF8002000F0E8
:100C800007F800F02BF8002010BD00000020024003
:100C900070B504460E4800784FF47A71B1FBF0F05D
:100CA0000C490968B1FBF0F5284600F027FE08B1B1
:100CB000012070BD102C07D200222146501E00F0EA
:100CC00049F80548046001E00120F2E70020F0E760
:100CD000280000202C0000202400002008B500BFC0
:100CE0001248806940F00100104988610846806917
:100CF00000F00100009000BF00BF00BF0846C069BF
:100D000040F08050C8610846C06900F080500090F3
:100D100000BF00BF072000F05BF800BF044948682F
:100D200020F0E06000BF486000BF08BD0010024036
:100D30000000014001460846002809DB00F01F03BF
:100D400001229A4043099B0003F1E023C3F80021EC
:100D500000BF70472DE9F05F80460D46164600271C
:100D600002F076FC074639462A46334601F0070072
:100D7000C0F1070ABAF1040F02D94FF0040A01E0EA
:100D8000C0F1070AD14600F1040ABAF1070F02D2F6
:100D90004FF0000A01E0A0F1030AD4464FF0010A27
:100DA0000AFA09FAAAF1010A0AEA020A0AFA0CFA8C
:100DB0004FF0010B0BFA0CFBABF1010B0BEA030B31
:100DC0004AEA0B042146404602F04AFCBDE8F09F87
:100DD00000BF00F00702064B19684FF6FF031940E9
:100DE000044B0B4343EA0221014B196000BF7047DB
:100DF0000CED00E00000FA0570B504460D460CB994
:100E0000012070BD5A48006800F00700A8420ED2C9
:100E10005748006820F007002843554908600846F5
:100E2000006800F00700A84201D00120E9E720781F
:100E300000F0020002281DD1207800F004000428F0
:100E400005D14C48406840F4E0604A494860207849
:100E500000F00800082805D14648406840F460507A
:100E6000444948604348406820F0F000A1680843C6
:100E700040494860207800F0010078B3606801289C
:100E800006D13C48006800F4003090B90120B8E772
:100E90006068022806D13748006800F0007040B949
:100EA0000120AEE73348006800F0020008B90120D5
:100EB000A7E73048406820F00300616808432D49E7
:100EC0004860FFF7BFFE064609E0FFF7BBFE801B48
:100ED00041F28831884202D9032092E707E0254891
:100EE000406800F00C006168B0EB810FEDD1204844
:100EF000006800F00700A8420ED91D48006820F0E5
:100F0000070028431A4908600846006800F00700F7
:100F1000A84201D0012074E7207800F004000428E2
:100F200007D11448406820F4E060E16808431149A3
:100F30004860207800F00800082808D10D48406873
:100F400020F46050216940EAC1000A49486000F07D
:100F50003FF808494968C1F30311074A515CC8408A
:100F60000649086006480068FFF792FE002048E73F
:100F70000020024000100240E2DE00082C000020A9
:100F80002400002001480068704700002C00002069
:100F900000B5FFF7F7FF04494968C1F30221034A8E
:100FA000515CC84000BD000000100240F2DE0008A5
:100FB00000B5FFF7E7FF04494968C1F3C221034ABE
:100FC000515CC84000BD000000100240F2DE000885
:100FD000F0B585B00FF26C0C9CE8E01001A8A0E819
:100FE000E0101CA52D68009500210022002300249C
:100FF0000020194D696801F00C05F5B1042D02D0EF
:10100000082D19D101E0154819E001ADC1F383465F
:10101000AC5D01F4803555B10F4D6D68C5F34045A9
:101020001DF805200D4D6543B5FBF2F302E00C4DB4
:1010300004FB05F3184602E000BF084800BF00BFEC
:1010400005B0F0BD02030405060708090A0B0C0DE4
:101050000E0F1010010200000010024000127A0072
:1010600000093D00F8B504460CB90120F8BD207810
:1010700000F00100002878D0F848406800F00C002B
:1010800004280CD0F548406800F00C00082811D165
:10109000F248406800F48030B0F5803F0AD1EF4854
:1010A000006800F4003000285FD0606800285CD140
:1010B0000120DBE700BF6068B0F5803F06D1E7485C
:1010C000006840F48030E549086028E0606858B95D
:1010D000E248006820F48030E04908600846006873
:1010E00020F4802008601AE06068B0F5A02F0BD1D2
:1010F000DA48006840F48020D84908600846006853
:1011000040F4803008600AE0D448006820F4803061
:10111000D24908600846006820F48020086000BFBB
:10112000606888B1FFF78EFD054606E0FFF78AFD8F
:10113000401B642801D9032098E7C848006800F4E0
:1011400000300028F2D010E0FFF77CFD054606E0F5
:10115000FFF778FD401B642801D9032086E7BF48CC
:10116000006800F400300028F2D1207800F002007E
:10117000022857D1B948406800F00C0050B1B74878
:10118000406800F00C00082818D1B448406800F40A
:10119000803098B9B148006800F0020020B12069A1
:1011A000012801D0012061E7AC48006820F0F80078
:1011B000616940EAC100A949086033E02069E8B1EB
:1011C0000120A7490860FFF73DFD054606E0FFF74F
:1011D00039FD401B022801D9032047E79F480068DA
:1011E00000F002000028F2D09C48006820F0F800CF
:1011F000616940EAC1009949086013E000209849FC
:101200000860FFF71FFD054606E0FFF71BFD401BCA
:10121000022801D9032029E79048006800F0020065
:101220000028F2D1207800F0080008282DD1A0690C
:10123000B8B101208B490860FFF704FD054606E0C0
:10124000FFF700FD401B022801D903200EE7834869
:10125000406A00F002000028F2D0012001F030F8CE
:1012600013E000207F490860FFF7ECFC054606E02C
:10127000FFF7E8FC401B022801D90320F6E6774877
:10128000406A00F002000028F2D1207800F004004B
:10129000042873D100277148C06900F0805070B9EC
:1012A00000BF6E48C06940F080506C49C861084674
:1012B000C06900F08050009000BF00BF01276A485D
:1012C000006800F48070B0B96748006840F480702E
:1012D00065490860FFF7B6FC054606E0FFF7B2FC7B
:1012E000401B642801D90320C0E65F48006800F471
:1012F00080700028F2D000BFE068012806D157486E
:10130000006A40F001005549086227E0E06858B9DA
:101310005248006A20F00100504908620846006AFD
:1013200020F00400086219E0E06805280BD14B4862
:10133000006A40F00400494908620846006A40F02B
:10134000010008620AE04548006A20F001004349B4
:1013500008620846006A20F00400086200BFE068E6
:10136000A0B1FFF76FFC054609E0FFF76BFC401BDF
:1013700041F28831884202D9032077E622E03748DB
:10138000006A00F002000028EFD012E0FFF75AFCDC
:10139000054608E0FFF756FC401B41F288318842C1
:1013A00001D9032062E62D48006A00F002000028FF
:1013B000F0D1012F05D12948C06920F0805027497C
:1013C000C86100BFE069C8B32448406800F00C0061
:1013D000082860D0E069022848D10020204908662A
:1013E000FFF730FC054606E0FFF72CFC401B022807
:1013F00001D903203AE61948006800F0007000287F
:10140000F2D1206AB0F5803F07D11448406820F43B
:101410000030A168084311494860D4E90801084335
:101420000E49496821F4741108430C4948600120B1
:101430000B490866FFF706FC054607E03DE0FFF7AD
:1014400001FC401B022801D903200FE60348006875
:1014500000F000700028F2D02FE0000000100240E1
:1014600000004242800442420070004000201449C3
:101470000866FFF7E7FB054606E0FFF7E3FB401BC6
:10148000022801D90320F1E50E48006800F0007041
:101490000028F2D111E0E069012800D1E6E5094811
:1014A000466806F48031206A814204D106F4701146
:1014B000606A814201D00120D8E50020D6E5000015
:1014C0000000424200100240704710B504460CB9BB
:1014D000012010BD606A38B96068B0F5827F00D124
:1014E00005E00021E16102E000212161616100214C
:1014F000A16294F8510028B9002084F850002046D9
:1015000000F042F8022084F851002068006820F0C2
:10151000400021680860A08800F48270218901F4ED
:1015200004410843A18901F400610843217C01F0D2
:1015300002010843217D01F001010843218B01F4E0
:1015400000710843217F01F0380108432021095D23
:1015500001F080010843218D01F400510843216806
:1015600008600421A06901EA1040216848602068F1
:10157000C06920F400602168C86100206065012016
:1015800084F851000020A4E710B586B0044600207E
:10159000029003900490059027492068884248D122
:1015A00000BF2648806940F480502449886108467D
:1015B000806900F48050019000BF00BF00BF084662
:1015C000806940F0040088610846806900F00400EA
:1015D000019000BF00BFA0200290022003900320D2
:1015E000059002A91648FFF77DF9402002900020DF
:1015F0000390049002A91248FFF774F911481249A8
:1016000008601020486000210F4881608021C1607F
:1016100000210161416181614FF40051C161FFF717
:10162000B9F808B1FEF7E7FD00BF0748A0644462BF
:1016300000BF06B010BD00000030014000100240A5
:101640000008014030000240880000202DE9F84FDA
:101650000446884616461D464FF0000A00BF94F81F
:101660005000012802D10220BDE8F88F012084F843
:10167000500000BFFFF7E6FA0746B14694F8510064
:10168000012802D04FF0020AADE0B8F1000F00D0FF
:1016900016B94FF0010AA6E0032084F8510000209B
:1016A0006065C4F83080A686E686A063A087E087E0
:1016B00060642064A068B0F5004F0BD1206800681A
:1016C00020F04000216808602068006840F48040F5
:1016D000216808602068006800F04000402805D0BC
:1016E0002068006840F0400021680860E068B0F5BC
:1016F000006F2FD1606810B1B9F1010F09D1206BD3
:1017000000882168C860206B801C2063E08E401E2A
:10171000E0861BE02068806800F0020002280AD101
:10172000206B00882168C860206B801C2063E08EDD
:10173000401EE0860AE0FFF785FAC01BA84201D3ED
:10174000681C00B915B94FF0030A4CE0E08E002880
:10175000E0D12EE0606810B1B9F1010F09D1206B22
:10176000007821680873206B401C2063E08E401EC7
:10177000E0861BE02068806800F0020002280AD1A1
:10178000206B007821680873206B401C2063E08E7A
:10179000401EE0860AE0FFF755FAC01BA84201D3BD
:1017A000681C00B915B94FF0030A1CE0E08E002850
:1017B000E0D13A462946204600F0F0FD08B120204D
:1017C0006065A06850B900BF002000902068C06824
:1017D000009020688068009000BF00BF606D08B175
:1017E0004FF0010A00BF012084F8510000BF002023
:1017F00084F8500000BF504636E700002DE9F04164
:1018000004460E461546002700BF94F850000128F4
:1018100002D10220BDE8F081012084F8500000BF11
:1018200094F85100012801D0022758E006B10DB903
:10183000012754E0032084F85100002060652663EE
:10184000A586E586A06360642064A087E087A06821
:10185000B0F5004F0BD12068006820F040002168EF
:1018600008602068006840F48040216808601F48D4
:10187000A16CC8621E48A16C88621E48A16C0863F6
:101880000020A16C4863E38ED4F800C00CF10C0278
:10189000216BA06CFEF7C4FF40B1606D40F01000FA
:1018A00060650127012084F8510018E02068006875
:1018B00000F04000402805D02068006840F040005B
:1018C000216808602068406840F020002168486076
:1018D0002068406840F002002168486000BF00BFF7
:1018E000002084F8500000BF384693E71123000819
:1018F0001F230008E92200087047704770B50446AE
:101900002546681EB0F1807F01D301200FE0681EDC
:101910004FF0E02148610F214FF0FF3001F0A0FEB1
:1019200000204FF0E021886107200861002070BD91
:101930007047704730B502460B4600BF92F83C0036
:10194000012801D1022030BD012082F83C0000BFF7
:10195000022082F83D00106844681068816824F015
:1019600070041868044310684460144D1068A8425D
:1019700013D0134D1068A8420FD01068B0F1804FFB
:101980000BD0104D1068A84207D00F4D1068A84228
:1019900003D00E4D1068A84205D121F0800158688F
:1019A000014310688160012082F83D0000BF0020E3
:1019B00082F83C0000BF00BFC5E70000002C0140DA
:1019C000003401400004004000080040000C0040CA
:1019D00010B504460CB9012010BD94F83D0028B99B
:1019E000002084F83C00204600F026F8022084F80D
:1019F0003D00211D206801F043FC012084F84600D1
:101A000000BF84F83E0001213F20015540200155D0
:101A10004120015500BF00BF012084F8420043204F
:101A20000155442001554520015500BF012084F88F
:101A30003D000020D0E7000038B504462068B0F132
:101A4000804F15D100BF0B48C06940F00100094923
:101A5000C8610846C06900F00100009000BF00BFE7
:101A6000052200211C20FFF775F91C20FFF762F901
:101A700038BD0000001002402DE9F04104460D463B
:101A800000BF94F83C00012802D10220BDE8F0819B
:101A9000012084F83C0000BF022084F83D0020684B
:101AA000866826F0770626F47F46206886602868D8
:101AB000502833D00CDC202850D004DC00284BD038
:101AC000102851D149E0302849D040284CD139E084
:101AD00060282DD0702807D0B0F5805F03D0B0F516
:101AE000005F41D10DE040E0D5E902136A6820684B
:101AF00001F014FC2068866846F07706206886604E
:101B000033E0D5E902136A68206801F007FC206819
:101B1000806840F480402168886026E0EA6869684F
:101B2000206801F00FFC5021206801F002FC1CE04D
:101B3000EA686968206801F018FC6021206801F0FB
:101B4000F8FB12E0EA686968206801F0FBFB4021BD
:101B5000206801F0EEFB08E000BF00BF00BF29686D
:101B6000206801F0E6FB00E000BF00BF012084F820
:101B70003D0000BF002084F83C0000BF00BF85E7A7
:101B8000704710B5044620680069C0F34000D8B122
:101B90002068C068C0F34000B0B16FF00200216857
:101BA0000861012020772068806900F0030018B1E7
:101BB0002046FFF7E5FF05E0204600F0ADF820469F
:101BC00000F0ABF80020207720680069C0F38000A7
:101BD000D8B12068C068C0F38000B0B16FF00400D5
:101BE00021680861022020772068806900F4407035
:101BF00018B12046FFF7C4FF05E0204600F08CF83E
:101C0000204600F08AF80020207720680069C0F3A1
:101C1000C000D8B12068C068C0F3C000B0B16FF098
:101C2000080021680861042020772068C06900F05E
:101C3000030018B12046FFF7A3FF05E0204600F09F
:101C40006BF8204600F069F80020207720680069D2
:101C5000C0F30010D8B12068C068C0F30010B0B164
:101C60006FF0100021680861082020772068C069A3
:101C700000F4407018B12046FFF782FF05E02046CF
:101C800000F04AF8204600F048F80020207720684D
:101C9000006900F0010058B12068C06800F0010040
:101CA00030B16FF0010021680861204600F036F87D
:101CB00020680069C0F3C01058B12068C068C0F344
:101CC000C01030B16FF08000216808612046FFF736
:101CD0002FFE20680069C0F3801058B12068C068EA
:101CE000C0F3801030B16FF04000216808612046D9
:101CF00000F03AF820680069C0F3401058B120683D
:101D0000C068C0F3401030B16FF020002168086156
:101D10002046FFF70EFE10BD7047704710B5044611
:101D20002068B0F1804F18D10C480088401C0B4946
:101D3000088008460088B0F57A7F0ED10848007800
:101D400008B9012000E0002005490870002003497F
:101D5000088001210348FEF765FF10BD0000002048
:101D600002000020000C01407047704770470000DF
:101D70002DE9F84F0446206805682068C668206889
:101D800047694FF00009CA4605F00F09B9F1000F85
:101D90000AD105F0200038B106F0200020B120461D
:101DA00001F02CFBBDE8F88FB9F1000F71D007F0FE
:101DB000010018B906F4907000286AD005F00100FF
:101DC00030B106F4807018B1206C40F0010020643E
:101DD00005F0040030B107F0010018B1206C40F0AC
:101DE0000200206405F0020030B107F0010018B1D4
:101DF000206C40F00400206405F0080048B106F0B3
:101E0000200010B907F0010018B1206C40F0080064
:101E10002064206C68B305F0200028B106F0200093
:101E200010B1204601F0EAFA20684069C0F3801A38
:101E3000206C00F0080010B9BAF1000F22D0204643
:101E400001F0B1FA2068406900F04000B0B12068AC
:101E5000406920F0400021684861A06B50B15648AD
:101E6000A16B4863A06BFEF7F5F910B1A06B416B55
:101E700088470CE02046FFF779FF08E02046FFF78F
:101E800075FF04E02046FFF771FF0020206489E71A
:101E9000FFE7206B012878D105F01000002874D0EE
:101EA00006F01000002870D000BF002000902068CD
:101EB0000068009020684068009000BF00BF206864
:101EC000406900F04000C0B3A06B006840681FFA92
:101ED00080F8B8F1000F2FD0A08D40452CDDA4F87C
:101EE0002E80A06B806920281FD02068C06820F455
:101EF00080702168C8602068406920F00100216876
:101F000048612068406920F0400021684861202035
:101F100084F83E00002020632068C06820F0100094
:101F20002168C860A06BFEF769F9A08DE28D801A68
:101F300081B22046FFF719FF34E7FFE7A08DE18D5E
:101F4000401A1FFA80F8E08DE8B1B8F1000F1AD0FE
:101F50002068C06820F490702168C86020684069DB
:101F600020F0010021684861202084F83E00002014
:101F700020632068C06820F010002168C8604146D6
:101F80002046FFF7F2FE0DE7FFE705F0800030B1D5
:101F900006F0800018B1204601F020FB02E705F0B2
:101FA000400030B106F0400018B1204601F016FAAA
:101FB000F8E600BFF6E600009333000810B50446CB
:101FC0000CB9012010BDA06900B100E000BF94F879
:101FD0003D0028B9002084F83C00204600F028F895
:101FE000242084F83D002068C06820F40050216857
:101FF000C860204601F074FA2068006920F490401F
:10200000216808612068406920F02A002168486141
:102010002068C06840F400502168C8600020206437
:10202000202084F83D0084F83E000020CAE700002C
:1020300010B586B0044600200290039004900590ED
:102040001E492068884236D100BF1D48806940F48F
:1020500080401B4988610846806900F480400190F7
:1020600000BF00BF00BF0846806940F004008861DF
:102070000846806900F00400019000BF00BF4815C9
:102080000290022003900320059002A90D48FEF75C
:1020900029FC4FF48060029000200390049002A974
:1020A0000848FEF71FFC002211462520FEF752FECD
:1020B0002520FEF73FFE06B010BD000000380140AD
:1020C00000100240000801407047704700BFFEE763
:1020D00008B500BF0A48406940F00100084948615E
:1020E0000846406900F00100009000BF00BF0022D8
:1020F00011460D20FEF72EFE0D20FEF71BFE08BD3B
:102100000010024000B585B00020019002900390BD
:10211000049000BF2548806940F00400234988618D
:102120000846806900F00400009000BF00BF00BFB7
:102130000846806940F0100088610846806900F018
:102140001000009000BF00BF00BF0846806940F04B
:10215000080088610846806900F00800009000BF10
:1021600000BF012210211248FEF766FD0122032163
:102170001048FEF761FD1020019001200290002020
:1021800003900220049001A90948FEF7ABFB03204D
:10219000019001200290002003900320049001A9E7
:1021A0000448FEF79FFB05B000BD00000010024090
:1021B00000100140000C014010B51348134908609D
:1021C0004FF482704860002110488160C160022194
:1021D0000161002141614FF4007181610821C161F9
:1021E00000210162416281620A21C162FFF76DF93B
:1021F00008B1FEF700F805480068006840F04000AC
:1022000002490968086010BD00300140300000201C
:1022100000B587B0002003900490059006900190CF
:1022200002904FF080401449086047204860002128
:102230001148816040F2E731C160002101618021D5
:102240008161FFF7C5FB08B1FDF7D5FF4FF4805062
:10225000039003A90848FFF70FFC08B1FDF7CBFF77
:1022600000200190029001A90348FFF763FB08B129
:10227000FDF7C1FF07B000BDCC00002010B50B4832
:102280000B4908604FF4E130486000210848816044
:10229000C16001610C21416100218161C161FFF7D1
:1022A0008DFE08B1FDF7A7FF10BD0000003801400A
:1022B0001401002000BFFEE700BFFEE770470000EA
:1022C00008B508490968C9084FF47A72B1FBF2F100
:1022D0004143009100BF00BF00994A1E00920029AF
:1022E000F9D108BD2C00002070B505466C6A206845
:1022F000406820F0030021684860606D40F01000E5
:102300006065012084F851002046FFF7DDF870BDBC
:1023100070B50446656A2846FFF7EFFA70BDF8B558
:1023200005466C6AFEF78EFC06462868006800F0D9
:10233000200020282DD02068406820F0200021684F
:1023400048602068406820F00200216848603246FA
:102350006421204600F022F818B1606D40F02000A2
:102360006065A06850B900BF002000902068C06878
:10237000009020688068009000BF00BF0020E086C9
:10238000012084F85100606D18B12046FFF79CF8D9
:10239000F8BD2046FFF7B0FA00BFF9E7F8B50446EC
:1023A0000D4616462B46002280212046009600F05E
:1023B00009F828B1606D40F0200060650320F8BD89
:1023C0000020FCE72DE9F84F04460D4690461E46D6
:1023D000DDF82890FEF736FCA0EB0900371AFEF76F
:1023E00031FC82462C480068C0F3CB307843009023
:1023F00045E0701C002842D0FEF724FCA0EB0A0048
:10240000B84200D2A7BB2068406820F0E0002168F5
:1024100048606068B0F5827F0DD1A068B0F5004FCC
:1024200003D0A068B0F5806F05D12068006820F067
:10243000400021680860A06AB0F5005F0DD100BFC0
:102440002068006820F40050216808602068006857
:1024500040F400502168086000BF012084F851005A
:1024600000BF002084F8500000BF0320BDE8F88FB3
:10247000FFE7009800B900270098401E00902068F0
:1024800080682840A84201D1012000E0002040459A
:10249000AFD10020EAE700002C0000202DE9FF5F0B
:1024A00005460E469046C8F101094FF0010A4FEA71
:1024B0004800C0F1000B0027444606EB080081B23B
:1024C0002846039A00F061FAA6EB080081B228467C
:1024D000039A00F05AFA05EB080188B23146039AD4
:1024E00000F053FAA5EB080188B23146039A00F0D8
:1024F0004CFA4EE0B9F1000F09DB601E04B20BF19B
:1025000002000FFA80FB09EB0B000FFA80F9781C30
:1025100007B20AF102000FFA80FA09EB0A000FFA7B
:1025200080F9321991B2EA1990B2039A00F02DFAAB
:10253000321991B2EA1B90B2039A00F026FA321BCC
:1025400091B2EA1990B2039A00F01FFA321B91B2CD
:10255000EA1B90B2039A00F018FAF21991B22A1904
:1025600090B2039A00F011FAF21991B22A1B90B2BC
:10257000039A00F00AFAF21B91B22A1990B2039A58
:1025800000F003FAF21B91B22A1B90B2039A00F0FA
:10259000FCF9A742AEDBBDE8FF9F2DE9FC5F0546D5
:1025A0000E4617469946C7F101000FFA80FA4FF020
:1025B000010B7800404200B201904FF000083C4609
:1025C000F21991B2A8B24A4600F0DFF9F21B91B2BB
:1025D000A8B24A4600F0D9F9B1B2EA1990B24A4617
:1025E00000F0D3F9B1B2EA1B90B24A4600F0CDF93F
:1025F000B3B205EB070C1FFA8CF2B1B2A5EB070CD6
:102600001FFA8CF0CDF8009000F05CF968E0BAF1A8
:10261000000F09DB601E04B20198801C00B201901B
:10262000019850440FFA80FA08F101000FFA80F87F
:102630000BF102000FFA80FB0AEB0B000FFA80FA95
:1026400006EB040C1FFA8CF305EB080C1FFA8CF256
:1026500006EB040C1FFA8CF1A5EB080C1FFA8CF0AA
:10266000CDF8009000F02EF9A6EB040C1FFA8CF3C5
:10267000A5EB080C1FFA8CF2A6EB040C1FFA8CF1E8
:1026800005EB080C1FFA8CF0CDF8009000F01AF959
:1026900006EB080C1FFA8CF3A5EB040C1FFA8CF266
:1026A00006EB080C1FFA8CF105EB040C1FFA8CF0FA
:1026B000CDF8009000F006F9A6EB080C1FFA8CF399
:1026C000A5EB040C1FFA8CF2A6EB080C1FFA8CF198
:1026D00005EB040C1FFA8CF0CDF8009000F0F2F836
:1026E000A04594DBBDE8FC9F2DE9F84305460C4668
:1026F00017469846DDF82090F02D01DAF02C01DB2A
:10270000BDE8F883E819F02802DBC5F1F00087B2D4
:1027100004EB0800F02803DBC4F1F0001FFA80F896
:1027200000260CE0A01983B2E81982B2A01981B288
:102730002846CDF8009000F0C5F8701CC6B246459A
:10274000F0DD00BFDCE72DE9F04F8BB005460E460B
:1027500091469A460027B846BB4600200A90099049
:102760000890079006900024059004900390029032
:10277000A9EB0500002802DDA9EB050001E0A5EBAF
:10278000090007B2AAEB0600002802DDAAEB06004A
:1027900001E0A6EB0A000FFA80F80FFA85FB30B2D1
:1027A0000A90A94503DB01200990089003E04FF04F
:1027B000FF3009900890B24503DB01200790069096
:1027C00003E04FF0FF300790069047450DDB0020F7
:1027D000099006903C46384607EBD071491009B283
:1027E0000591CDF8108003970CE000200890079029
:1027F0004446404608EBD071491009B20591049750
:10280000CDF80C80002002902BE0169800900A9AD8
:1028100091B21FFA8BF0DDE9142300F053F8DDE9E3
:102820000410084400B205900598A0420CDB0598FE
:10283000001B00B20590099858440FFA80FB0799D5
:102840000A98084400B20A90089858440FFA80FB8E
:1028500006990A98084400B20A900298401C00B2F7
:102860000290DDE902018842CFDD0BB0BDE8F08FB8
:102870002DE9F04104460D4616461F46DDF8188046
:10288000F02C01DAF02D01DBBDE8F081A019401E2B
:10289000F02800DBF8E7E819401EF02800DBF3E73A
:1028A000E819401E83B2A019401E82B22946204674
:1028B00000F092F9700000FB07F1404600F020FCA8
:1028C00000BFE1E72DE9FC5F05460C4617461E46B2
:1028D000301B002801DD301B00E0A01B791B002904
:1028E00001DD791B00E0E91B884201DD012000E0E9
:1028F00000200190019828B1A84625464446B846D4
:1029000037464646BD4205DDA8463D464746A046F9
:1029100034464646781B0FFA80F9301B002801DD4B
:10292000301B00E0A01B00B20090484609EBD071BC
:1029300049100FFA81FAB44202DA4FF0010B01E0BC
:102940004FF0FF3B1DE0019828B1294620460C9A24
:1029500000F01BF804E0214628460C9A00F015F818
:102960000098AAEB00000FFA80FABAF1000F06DA1D
:1029700004EB0B0084B20AEB09000FFA80FA681C22
:1029800085B2BD42DFDDBDE8FC9FF8B504460D46CB
:102990001646002C05DBF02C03DA002D01DBF02DB0
:1029A00000DBF8BD2B4622462946204600F014F9EC
:1029B00030128DF80000F0B28DF801000221684657
:1029C00000F09EFB00BFECE72DE9F84305460E46FC
:1029D00017469846089C33463A46314628460094A6
:1029E000FFF770FF43462A46314628460094FFF71A
:1029F00069FF43463A46414628460094FFF762FF86
:102A000043463A46314638460094FFF75BFFBDE83F
:102A1000F8832DE9F84F05460E4617469846DDE93E
:102A20000A9A0C9C43463A46314628460094FFF7E2
:102A300049FF53464A46414638460094FFF742FF55
:102A400033462A46514648460094FFF73BFFBDE80F
:102A5000F88F000070B50446EF231A46002108469F
:102A600000F0BAF800250CE022464FF46141064818
:102A7000FDF77CFB4FF46141034800F041FB681C0B
:102A800085B2022DF0DB70BD580100201FB54FF458
:102A900061414548FDF771FB4FF47A70FDF70EFF79
:102AA000002201214148FEF7C7F87820FDF706FF14
:102AB000012211463D48FEF7BFF83220FDF7FEFE29
:102AC0003A2000F00BFB552000F050FBB22000F044
:102AD00005FB37A103C9CDE90201052102A800F0D9
:102AE0000FFB022000F0B9F8B72000F0F7FA35200C
:102AF00000F03CFBBB2000F0F1FA192000F036FB9F
:102B0000C02000F0EBFA2C2000F030FBC22000F0D7
:102B1000E5FA012000F02AFBC32000F0DFFA1220C2
:102B200000F024FBC42000F0D9FA202000F01EFBA6
:102B3000C62000F0D3FA0F2000F018FBD02000F0E0
:102B4000CDFAA42000F012FBA12000F00FFBE02042
:102B500000F0C4FA18A090E80E00C0688DE80E00DE
:102B600003900E21684600F0CBFAE12000F0B6FA9F
:102B700015A3D3E901021968DB6801AC0DC400910B
:102B80000E21684600F0BCFA212000F0A7FA1120BF
:102B900000F0A4FA132000F0A1FA292000F09EFA18
:102BA0003220FDF78BFE1FBD58010020000C0140B4
:102BB0000C0C003333000000D0040D11132B3F54D4
:102BC0004C180D0B1F230000D0040C11132C3F4494
:102BD000512F1F1F202300002DE9F84F04460D46FA
:102BE00016461F461FFA84F81FFA86F91FFA85FA5F
:102BF0001FFA87FB2A2000F071FA4FEA28208DF88F
:102C0000000008F0FF008DF801004FEA29208DF840
:102C1000020009F0FF008DF803000421684600F06F
:102C20006FFA2B2000F05AFA4FEA2A208DF80000A4
:102C30000AF0FF008DF801004FEA2B208DF802000A
:102C40000BF0FF008DF803000421684600F058FAED
:102C50002C2000F043FABDE8F88F10B5044636206A
:102C600000F03CFA34B1012C08D0022C0AD0032C1D
:102C700010D10BE0C02000F079FA0CE0A02000F0A9
:102C800075FA08E0002000F071FA04E0602000F01E
:102C90006DFA00E000BF00BF10BD00000EB54FF69A
:102CA000FF70FFF7D7FE4FF6FF704FF47841CDE984
:102CB0000110C24840680090C048C1A214210368B6
:102CC0000A2000F065FA4FF47A70FDF7F7FD47F639
:102CD000FF70FFF7BFFE4FF4FA70FDF7EFFD4FF402
:102CE0007840FFF7B7FE4FF4FA70FDF7E7FD1F20BD
:102CF000FFF7B0FE4FF4FA70FDF7E0FD4FF4FC6013
:102D0000FFF7A8FE4FF4FA70FDF7D8FD4FF6E0701C
:102D1000FFF7A0FE4FF4FA70FDF7D0FD4BF64040F0
:102D2000FFF798FE4FF4FA70FDF7C8FD40F2CF10A0
:102D3000FFF790FE4FF4FA70FDF7C0FD4FF61F004D
:102D4000FFF788FE4FF4FA70FDF7B8FD48F21F4018
:102D5000FFF780FE4FF4FA70FDF7B0FD4CF21860FB
:102D6000FFF778FE4FF4FA70FDF7A8FD42F6123037
:102D7000FFF770FE4FF4FA70FDF7A0FD4FF6FF70FD
:102D8000FFF768FE4FF4FA70FDF798FD4FF6FF70FD
:102D90004111CDE901108D48406800908B488CA20C
:102DA0000A210368084600F0F3F94FF6FF704FF46C
:102DB0007841CDE90110894840680090874888A291
:102DC000322103680A2000F0E3F94FF6FF704FF656
:102DD000E071CDE90110794840680090774880A201
:102DE0004B2103680A2000F0D3F94FF6FF704FF62D
:102DF0001F01CDE90110754840680090734878A222
:102E0000642103680A2000F0C3F94FF47A70FDF7DB
:102E100055FD4FF47840FFF71DFE00204FF6E0719E
:102E2000CDE90110654840680090644870A20A210D
:102E30000368084600F0ACF94FF6FF7064231A46A9
:102E40001E2100900846FFF7BFFD4FF47A70FDF792
:102E500035FD4FF47840FFF7FDFD00204FF6E0719F
:102E6000CDE90110554840680090544863A20A21FA
:102E70000368084600F08CF94FF6FF7032231A46BB
:102E80001E2100900846FFF72FFC4FF47A70FDF7E3
:102E900015FD4FF47840FFF7DDFD00204FF6E0719F
:102EA000CDE90110454840680090444857A20A21E6
:102EB0000368084600F06CF94FF6FF7319223C21B5
:102EC0000846FFF7EBFA4FF47A70FDF7F7FC4FF482
:102ED0007840FFF7BFFD00204FF6E071CDE901100B
:102EE00036484068009035484AA20A2103680846DF
:102EF00000F04EF94FF6FF7319223C210846FFF708
:102F00004CFB4FF47A70FDF7D9FC4FF47840FFF793
:102F1000A1FD00204FF6E071CDE90110274840687F
:102F2000009026483EA20A210368084600F030F9C6
:102F30004FF6FF7028213C224623CDE90021029064
:102F40001E2211461046FFF764FD4FF47A70FDF71C
:102F5000B5FC4FF47840FFF77DFD00204FF6E0719F
:102F6000CDE9011015484068009014482FA20A21AD
:102F70000368084600F00CF94FF6FF7028213C2248
:102F80004623CDE9002102901E2211461046FFF78C
:102F9000DAFB4FF47A70FDF791FC4FF6FF70FFF704
:102FA00059FD254880231A46002100900846FFF766
:102FB0005FFC40F6B830FDF781FC0EBD0C00002030
:102FC000537065656420546573740000140000201C
:102FD000466F6E7420746573742E00000400002028
:102FE00048656C6C6F2053746576652100000000A5
:102FF000526563742E2F4C696E652E0046696C6CA9
:10300000656420526563742E00000000436972639A
:103010006C652E0046696C6C6564204369722E00F5
:10302000547269616E676C650000000046696C6CE3
:103030006564205472690000E25E00080FB42DE957
:10304000F84F06460F469046DDE90F9A9DF8350089
:103050003844401E83B29DF834003044401E82B292
:1030600039463046FFF7B8FD00242FE0A8F12000D4
:103070009DF8351000FB01400E9931F810B0002585
:103080001FE00BFA05F000F4004060B14FEA292080
:103090008DF8000009F0FF008DF80100022168465C
:1030A00000F02EF80CE04FEA2A208DF800000AF01C
:1030B000FF008DF801000221684600F021F800BFF2
:1030C0006D1C9DF83400A842DBD8641C9DF83500C7
:1030D000A042CBD8BDE8F80F5DF814FB01B5002283
:1030E00002210548FDF7A8FD4FF0FF330122694694
:1030F0000248FEF7ABFA08BD000C0140300000208A
:1031000070B506460C46012202211548FDF794FDD4
:1031100022E0B4F5803F02D34FF6FF7000E0204676
:1031200085B210480088A0420CD82A4631460E4885
:10313000FEF764FB00BF0C48806C90F8210001286A
:10314000F9D106E04FF0FF332A4631460648FEF734
:103150007DFA2E44641B00BF002CDAD170BD000044
:10316000000C01401C0000203000002001B50122AD
:1031700002210548FDF760FD4FF0FF33012269464B
:103180000248FEF763FA08BD000C01403000002041
:103190000FB42DE9FE4305460E461446DDE90F78CF
:1031A00024E09DF834002844F0280FDB00259DF82A
:1031B0003500304486B29DF835003044F02800DBFD
:1031C00017E02078202801D1641C0FE0CDE90178B8
:1031D0000E9800902278314628460D9BFFF72EFF6F
:1031E0009DF83400284485B2641C00BF2078002874
:1031F000D7D100BFBDE8FE035DF814FB704710B5E2
:10320000FDF726FD10BD00B58FB0282105A8FCF7FD
:10321000B4FF14216846FCF7B0FF012005900004BC
:103220000690002007900120099002200C90C10315
:103230000D914FF4E0110E9105A8FDF713FF08B1B1
:10324000FCF7D9FF0F20009002200190002002908F
:103250004FF4806003900020049002216846FDF73F
:10326000CBFD08B1FCF7C7FF0FB000BD70470000F1
:1032700010B50248FEF785FC10BD0000CC00002010
:1032800010B50268204B98420ED0204B98420BD0CC
:10329000B0F1804F08D01E4B984205D01D4B98428C
:1032A00002D01D4B984203D122F070024B681A43A2
:1032B000154B98420ED0154B98420BD0B0F1804F71
:1032C00008D0134B984205D0124B984202D0124BB3
:1032D000984203D122F44072CB681A4322F0800353
:1032E0004C6943EA040202608B68C3620B68836224
:1032F000054B984202D0054B984201D10B690363FC
:103300000123436110BD0000002C01400034014046
:103310000004004000080040000C004030B50C469E
:10332000816821F47F4142EA0325254329438160D6
:1033300030BD0A46816821F0700142F0070319434D
:103340008160704730B50B461446026A056A25F065
:1033500001050562816921F0F00141EA041122F0C2
:103360000A021A438161026230BD30B50B46144631
:10337000056A25F0100505628169026A21F4704131
:1033800041EA043122F0A00242EA031281610262A2
:1033900030BD70B505466C6A0020E085E0842046AB
:1033A000FEF7E4FC70BD0168C96821F49071026801
:1033B000D1600168496921F0010102685161016B26
:1033C000012905D10168C96821F010010268D160A6
:1033D000202180F83E1000210163704710B504469B
:1033E0002068C06820F040002168C860202084F870
:1033F0003D002046FEF769FE002010BDF8B50446EA
:1034000094F83E00222869D1A068B0F5805F0CD105
:10341000206950B90025A66A20684068C0F30800FA
:103420003080A06A801CA06215E0A56A0026A06812
:10343000B0F5805F03D0A06828B9206918B920686A
:103440004068287004E02068406800F07F00287021
:10345000A06A401CA062E08D401E80B2E085A8BB3F
:103460002068C06820F020002168C8602068C0681B
:1034700020F480702168C8602068406920F0010055
:1034800021684861202084F83E00206B01281ED16D
:10349000002020632068C06820F010002168C86008
:1034A0002068006800F0100010280AD100BF00203A
:1034B000009020680068009020684068009000BF7D
:1034C00000BFA18D2046FEF750FC03E004E020463B
:1034D000FEF7FAFD0020F8BD0020FCE70220FAE725
:1034E00070B504462168096921F44051E26811432E
:1034F000226811612269A1681143626941EA0205EB
:103500002168C96841F20C62914329432268D16065
:103510002168496921F44071A2691143226851610F
:103520002D4A2168914202D1FDF742FD01E0FDF7ED
:103530002FFD00EBC00101EB001162689200B1FBAE
:10354000F2F100EBC00202EB001263689B00B2FBD9
:10355000F3F26423B2FBF3F202EBC20303EB0212B9
:10356000A1EB8201322202EB01116422B1FBF2F1E4
:1035700001F0F00100EBC00202EB001263689B0057
:10358000B2FBF3F26423B2FBF3F201EB021200EBA5
:10359000C00101EB001163689B00B1FBF3F100EB8C
:1035A000C00303EB00136668B600B3FBF6F36426B2
:1035B000B3FBF6F303EBC30606EB0313A1EB8301A6
:1035C000322303EB01116423B1FBF3F101F00F018E
:1035D00011442268916070BD00380140014691F8A5
:1035E0003D00212828D18868B0F5805F0BD108699B
:1035F00048B90A6A1088C0F308000B685860086A66
:10360000801C086205E00B6A581C086218780B6879
:103610005860C88C401E80B2C88458B90868C06819
:1036200020F080000B68D8600868C06840F0400057
:103630000B68D860002070470220FCE710B50248F4
:10364000FEF796FB10BD00001401002000BFFEE74E
:1036500002480068C0F30220704700000CED00E053
:1036600010B5002804DB0A07130E054A135406E0C0
:103670000A07140E034A00F00F031B1FD45410BD99
:1036800000E400E018ED00E002E008C8121F08C1E5
:10369000002AFAD170477047002001E001C1121FD3
:1036A000002AFBD17047FDF7DFFAFFF7ACFDFEF70C
:1036B00029FDFEF70DFDFEF7E1FDFEF77DFDFEF7AE
:1036C000A7FDFFF7E3F901E0FFF7E8FAFCE70000E8
:1036D00000000000000000000000000000000000EA
:1036E000000000100010001000100010001000007A
:1036F0000010000000000028002800280000000042
:103700000000000000000000000000240024007CF5
:1037100000240048007C00480048000000000038F9
:1037200000540050003800140054005400380010B9
:1037300000000020005400580030002800540014FD
:1037400000080000000000100028002800100034CD
:103750000048004800340000000000100010001075
:103760000000000000000000000000000000000851
:103770000010002000200020002000200020001069
:1037800000080020001000080008000800080008D9
:103790000008001000200010003800100028000071
:1037A0000000000000000000000000000000001009
:1037B0000010007C0010001000000000000000005D
:1037C00000000000000000000000000000100010D9
:1037D00000100000000000000000000000380000A1
:1037E00000000000000000000000000000000000D9
:1037F0000000000000100000000000080008001099
:103800000010001000100020002000000000003810
:1038100000440044005400440044004400380000C8
:1038200000000010003000500010001000100010C8
:1038300000100000000000380044004400040008AC
:1038400000100020007C000000000038004400044C
:1038500000180004000400440038000000000008C4
:103860000018002800280048007C0008000800001C
:103870000000007C00400040007800040004004488
:103880000038000000000038004400400078004488
:1038900000440044003800000000007C00040008E0
:1038A0000010001000200020002000000000003860
:1038B0000044004400380044004400440038000044
:1038C00000000038004400440044003C0004004470
:1038D00000380000000000000000001000000000A0
:1038E00000000000001000000000000000000000C8
:1038F0000010000000000000001000100010000088
:103900000000000C003000400030000C00000000FF
:103910000000000000000000007C0000007C0000AF
:10392000000000000000000000000060001800041B
:10393000001800600000000000000038004400048F
:103940000008001000100000001000000000003807
:103950000044004C0054005C00400040003800006F
:10396000000000100028002800280028007C0044E7
:103970000044000000000078004400440078004447
:10398000004400440078000000000038004400407B
:10399000004000400040004400380000000000707B
:1039A0000048004400440044004400480070000007
:1039B0000000007C00400040007C004000400040CF
:1039C000007C00000000007C0040004000780040C7
:1039D000004000400040000000000038004400406B
:1039E0000040005C00440044003800000000004437
:1039F00000440044007C00440044004400440000B3
:103A0000000000380010001000100010001000101E
:103A1000003800000000000400040004000400045A
:103A2000000400440038000000000044004800503A
:103A300000600050004800480044000000000040C2
:103A4000004000400040004000400040007C00007A
:103A500000000044006C006C00540044004400442A
:103A6000004400000000004400640064005400545E
:103A7000004C004C004400000000003800440044AA
:103A80000044004400440044003800000000007876
:103A90000044004400440078004000400040000022
:103AA0000000003800440044004400440044005436
:103AB000003800040000007800440044004400780E
:103AC0000048004800440000000000380044004066
:103AD0000030000800040044003800000000007CB2
:103AE0000010001000100010001000100010000066
:103AF00000000044004400440044004400440044EA
:103B00000038000000000044004400440028002861
:103B10000028001000100000000000440044005481
:103B200000540054006C00280028000000000044ED
:103B30000028002800100010002800280044000081
:103B4000000000440044002800280010001000106D
:103B5000001000000000007C0004000800100010AD
:103B600000200040007C0000000000180010001041
:103B700000100010001000100010001000180020AD
:103B800000200010001000100010000800080000C5
:103B90000000003000100010001000100010001095
:103BA0000010001000300010002800280044000021
:103BB0000000000000000000000000000000000005
:103BC00000000000000000000000000000FE0020D7
:103BD00000100000000000000000000000000000D5
:103BE00000000000000000380044003C0044004C8D
:103BF0000034000000000040004000580064004411
:103C0000004400640058000000000000000000387C
:103C10000044004000400044003800000000000460
:103C200000040034004C00440044004C0034000008
:103C300000000000000000380044007C0040004408
:103C4000003800000000000C0010007C0010001084
:103C50000010001000100000000000000000003400
:103C6000004C00440044004C003400040078004044
:103C70000040005800640044004400440044000038
:103C80000000001000000070001000100010001074
:103C90000010000000000010000000700010001074
:103CA000001000100010001000E00040004000482C
:103CB0000050006000500048004400000000007008
:103CC0000010001000100010001000100010000084
:103CD000000000000000007800540054005400541C
:103CE0000054000000000000000000580064004480
:103CF00000440044004400000000000000000038C0
:103D0000004400440044004400380000000000006B
:103D10000000005800640044004400640058004063
:103D20000040000000000034004C00440044004CFF
:103D3000003400040004000000000058006400404B
:103D4000004000400040000000000000000000387B
:103D5000004400300008004400380000000000204B
:103D60000020007800200020002000200018000023
:103D70000000000000000044004400440044004CE7
:103D8000003400000000000000000044004400284F
:103D9000002800280010000000000000000000546F
:103DA00000540054006C00280028000000000000AF
:103DB000000000440028001000100028004400000B
:103DC000000000000000004400440028002800100B
:103DD00000100010006000000000007C00080010CF
:103DE00000200040007C00000000001800100010BF
:103DF000001000200020001000100010001800101B
:103E00000010001000100010001000100010001032
:103E10000010003000100010001000080008001012
:103E20000010001000300000000000000074004C82
:103E30000000000000000000000000000000000082
:103E40000000000000000000000000000000000072
:103E50000000000000000000000000000000000062
:103E6000000C000C000C000C000C000C000C000CF2
:103E7000000C000C000C0000000C000C0000000006
:103E800000000000001B001B001B001B001B0000AB
:103E90000000000000000000000000000000000022
:103EA00000000000000000008019801980198019AE
:103EB000C07FC07F80190033C07FC07F00330033D4
:103EC000003300330000000000000000001E003F2F
:103ED000807580650074003C001E000780058065C9
:103EE00080658075003F001E000400040000000093
:103EF000007000D840D8C0D880D900730006000CEC
:103F0000801BC036C066C046C006800300000000AB
:103F100000000000001E003F003300330033001E8D
:103F2000000CC03CC066806380618063C03E801C22
:103F30000000000000000000000C000C000C000C51
:103F4000000C000000000000000000000000000065
:103F500000000000000000000000800000010003DD
:103F6000000600060004000C000C000C000C000C05
:103F7000000C000400060006000300018000002081
:103F800000100018000C000C0004000600060006DB
:103F90000006000600060004000C000C00180010CB
:103FA00000200000000C002D003F001E0033000028
:103FB0000000000000000000000000000000000001
:103FC000000000000000000000000000000C000CD9
:103FD000000C000CC0FFC0FF000C000C000C000C1B
:103FE00000000000000000000000000000000000D1
:103FF00000000000000000000000000000000000C1
:1040000000000000000C000C000400040008000088
:1040100000000000000000000000000000000000A0
:10402000001E001E00000000000000000000000054
:104030000000000000000000000000000000000080
:10404000000000000000000000000000000C000C58
:104050000000000000000000000300030003000651
:10406000000600060006000C000C000C000C0018F6
:10407000001800180000000000000000001E003FB3
:104080000033806180618061806D806D80618061BE
:1040900080610033003F001E0000000000000000AF
:1040A0000006000E001E0036002600060006000670
:1040B00000060006000600060006000600000000DC
:1040C00000000000001E003F80738061806180015D
:1040D00000030006000C001800300060807F807F25
:1040E0000000000000000000001C003E00630063B0
:1040F0000003000E000E00038001800180618073C8
:10410000003F001E00000000000000000006000E3E
:10411000000E001E001E0016003600360066807F6E
:10412000807F00060006000600000000000000007E
:10413000007F007F006000600060006E007F806391
:104140008001800180618073003F001E000000003C
:1041500000000000001E003F803380610060006EA0
:10416000007F80738061806180618033003F001E2A
:104170000000000000000000807F807F80010003BD
:10418000000300060006000C000C000C00080018DC
:10419000001800180000000000000000001E003F92
:1041A0008063806180610021001E003F806180612A
:1041B00080618061003F001E0000000000000000E0
:1041C000001E003F00738061806180618073803FCA
:1041D000801D800180610073003F001E0000000010
:1041E000000000000000000000000000000C000CB7
:1041F000000000000000000000000000000C000CA7
:1042000000000000000000000000000000000000AE
:104210000000000C000C0000000000000000000086
:10422000000C000C00040004000800000000000066
:10423000000080008003000E003800600038000E8F
:10424000800380000000000000000000000000006B
:104250000000000000000000807F807F0000000060
:10426000807F807F00000000000000000000000050
:104270000000000000000000000000400070001C72
:10428000000780010007001C0070004000000000D3
:104290000000000000000000001F803FC071C060EF
:1042A000C000C00180030007000E000C000C0000DD
:1042B000000C000C0000000000000000001E003F89
:1042C000803180718063806F806D806D806F8067CA
:1042D00000600032003E001C0000000000000000F2
:1042E000000E000E001B001B001B001B80318031E4
:1042F000803F803F8031C060C060C060000000002F
:1043000000000000007C007E006300630063006327
:10431000007E007E0063806180618063007F007E9C
:104320000000000000000000001E003F803180619E
:1043300000600060006000600060006080618031AB
:10434000003F001E0000000000000000007C007F15
:1043500000638063806180618061806180618061D1
:1043600000630063007E007C00000000000000008D
:10437000807F807F0060006000600060007F007FC1
:104380000060006000600060807F807F00000000AF
:1043900000000000807F807F00600060006000609F
:1043A000007F007F006000600060006000600060CF
:1043B0000000000000000000001E003F803180610E
:1043C0000060006000608063806380618061803194
:1043D000803F001E0000000000000000806180613E
:1043E0008061806180618061807F807F8061806189
:1043F0008061806180618061000000000000000039
:10440000003F003F000C000C000C000C000C000CE6
:10441000000C000C000C000C003F003F00000000EE
:104420000000000080018001800180018001800186
:10443000800180018001806180618073003F001EE7
:104440000000000000000000C060806100630066A2
:104450000066006C0078007C006600660063806186
:104460008061C0600000000000000000006000608B
:10447000006000600060006000600060006000603C
:1044800000600060807F807F00000000000000006E
:10449000C071C071C07BC07AC06AC06AC06EC0649F
:1044A000C060C060C060C060C060C060000000004C
:1044B0000000000080718071807980798079806D42
:1044C000806D806D806580678067806780638063B2
:1044D0000000000000000000001E003F003380616B
:1044E0008061806180618061806180618061003372
:1044F000003F001E0000000000000000007E007F62
:1045000080638061806180618063007F007E0060E5
:10451000006000600060006000000000000000001B
:10452000001E003F00338061806180618061806196
:104530008061806580670033803F401E000000007E
:1045400000000000007E007F8063806180618063E6
:10455000007F007E00660063006380618061C06050
:104560000000000000000000000E001F80318031BC
:1045700000300038001E00078003806180618031B8
:10458000003F001E0000000000000000C0FFC0FF50
:10459000000C000C000C000C000C000C000C000CBB
:1045A000000C000C000C000C0000000000000000DB
:1045B00080618061806180618061806180618061F3
:1045C0008061806180618073003F001E00000000F8
:1045D00000000000C060C060C06080318031803168
:1045E000001B001B001B001B000E000E000E000431
:1045F0000000000000000000C0C0C0C0C0C0C0C0BB
:10460000C0C0C0CC804C804C805E80528052807391
:10461000806180610000000000000000C0C0806078
:1046200080610033003B001E000C000C001E001FC8
:10463000003B80718061C0C00000000000000000ED
:10464000C0C08061806100330033001E001E000C7A
:10465000000C000C000C000C000C000C0000000012
:1046600000000000803F803F80010003000300063F
:10467000000C000C0018001800300060807F807F64
:10468000000000000000000F000F000C000C000CE8
:10469000000C000C000C000C000C000C000C000CBA
:1046A000000C000C000C000F000F00000018001898
:1046B0000018000C000C000C000C000600060006A0
:1046C0000006000300030003000000000000001EBD
:1046D000001E000600060006000600060006000692
:1046E0000006000600060006000600060006001E82
:1046F000001E0000000C000C001E001200330033EE
:1047000080618061000000000000000000000000E7
:104710000000000000000000000000000000000099
:104720000000000000000000000000000000000089
:10473000000000000000E0FF00000000003800184A
:10474000000C00000000000000000000000000005D
:104750000000000000000000000000000000000059
:104760000000000000000000001F803F8061800109
:10477000801F803F80618063807FC0380000000020
:10478000000000000060006000600060006E007FBC
:10479000807380618061806180618073007F006EC2
:1047A0000000000000000000000000000000000009
:1047B000001E003F80738061006000608061807334
:1047C000003F001E0000000000000000800180018A
:1047D00080018001801D803F8073806180618061E5
:1047E00080618073803F801D000000000000000099
:1047F0000000000000000000001E003F0073806108
:10480000807F807F00608071003F001E00000000FC
:1048100000000000C007C00F000C000C807F807FEC
:10482000000C000C000C000C000C000C000C000C28
:104830000000000000000000000000000000801DDB
:10484000803F807380618061806180618073803F80
:10485000801D80018063007F003E000000600060DA
:1048600000600060006F807F807180618061806186
:1048700080618061806180610000000000000000B4
:104880000006000600000000003E003E0006000694
:1048900000060006000600060006000600000000F4
:1048A00000000006000600000000003E003E00067A
:1048B00000060006000600060006000600060006C8
:1048C0000046007E003C0000006000600060006068
:1048D000806100630066006C007C0076006300630A
:1048E0008061C0600000000000000000003E003E4B
:1048F0000006000600060006000600060006000688
:10490000000600060006000600000000000000008F
:10491000000000000000000080DDC0FFC0CEC0CC61
:10492000C0CCC0CCC0CCC0CCC0CCC0CC000000003F
:10493000000000000000000000000000006F807F09
:10494000807180618061806180618061806180614F
:104950000000000000000000000000000000000057
:10496000001E003F80738061806180618061807380
:10497000003F001E000000000000000000000000DA
:104980000000006E007F80738061806180618061C3
:104990008073007F006E00600060006000600000B7
:1049A000000000000000801D803F807380618061F6
:1049B000806180618073803F801D80018001800163
:1049C0008001000000000000000000000067803F40
:1049D000003900300030003000300030003000304E
:1049E00000000000000000000000000000000000C7
:1049F000001E803F80610060007F803F80018061F9
:104A0000007F001E00000000000000000000000801
:104A100000180018007F007F001800180018001808
:104A200000180018801F800F000000000000000028
:104A300000000000000000008061806180618061F2
:104A40008061806180618063807F803D0000000024
:104A5000000000000000000000000000C060803185
:104A600080318031001B001B001B000E000E000671
:104A70000000000000000000000000000000000036
:104A800080DD80DD80DD0055005500550077007722
:104A900000220022000000000000000000000000D2
:104AA00000000000806100330033001E000C000C89
:104AB000001E003300338061000000000000000091
:104AC000000000000000806180618031003300330D
:104AD000001B001B001B000E000E000E001C007CC3
:104AE000007000000000000000000000C07FC07FD8
:104AF000800100030006000C00180030C07FC07F5A
:104B00000000000000008003800700060006000689
:104B100000060006000E001C001C000E0006000629
:104B20000006000600068007800300060006000657
:104B30000006000600060006000600060006000645
:104B40000006000600060006000600060006003803
:104B5000003C000C000C000C000C000C000E0007C8
:104B60000007000E000C000C000C000C000C003CB8
:104B700000380000000000000000000000000000FD
:104B80008038807F00470000000000000000000027
:104B90000000000000000000000000000000000015
:104BA0000000000000000000000000000000000005
:104BB00000000000000000000000000000000000F5
:104BC00000000000000000000000E003E003E0033C
:104BD000E003E003E003E003E003C003C003C0011F
:104BE000C001C001C001C001000000000000E003DE
:104BF000E003E003000000000000000000003C1E95
:104C00003C1E3C1E3C1E3C1E3C1E3C1E0000000088
:104C10000000000000000000000000000000000094
:104C20000000000000000000000000000000000084
:104C30000000CE01CE03DE039E039C039C07FF3FD2
:104C4000FF7F3807380F780F780F780EFFFFFFFFD0
:104C5000F01EF01CE01CE03CE03DE03900000000EC
:104C6000000000000000FC03FE0FEE1FE01EE01E2F
:104C7000E01EE01EE01FE00FE007F003FC01FE0174
:104C8000FE01FE01FE01FE01FE01FE3DFC3FF00FB4
:104C9000E001E001000000000000033E07F78FE79D
:104CA0008EE79EE3BCE3B8E7F8E7F0F7E03FC0012A
:104CB000FF03FF07F307F30FF31EF33CF338F3781A
:104CC0007FF03FE000000000000000000000E0076F
:104CD000F80F780F781F781F781F780FF00FE00F0C
:104CE000801FC37FC3FBE7F3F7F1F7F0FFF07FF01E
:104CF0003EF87F7CFF3FEF1F000000000000000037
:104D00000000E003E003E003E003E003C003C001B0
:104D10000000000000000000000000000000000093
:104D20000000000000000000000000000000000083
:104D30000000000000003F007C00F001E001C00323
:104D4000C00780078007800F000F000F000F000FC3
:104D5000000F000F800F80078007C007C003E0012D
:104D6000F0017C003F000F000000007E001FC00724
:104D7000C003E001F001F000F000F80078007800D6
:104D80007800780078007800F800F000F000F0017A
:104D9000E001C003C007001F007E00780000E003B0
:104DA000C003C001CE39FF3F7F3F20037003F807E7
:104DB000780F3C1F380600000000000000000000D3
:104DC00000000000000000000000000000000000E3
:104DD0000000000000000000000000000000C00112
:104DE000C001C001C001C001C001C001FFFFFFFF41
:104DF000C001C001C001C001C001C001000000002D
:104E000000000000000000000000000000000000A2
:104E10000000000000000000000000000000000092
:104E20000000000000000000E003E003E003E003F6
:104E3000E001E001E001C00180030000000000008B
:104E40000000000000000000000000000000000062
:104E5000FE3FFE3F000000000000000000000000D8
:104E60000000000000000000000000000000000042
:104E70000000000000000000000000000000000032
:104E80000000000000000000000000000000000022
:104E9000E003E003E003E003000000000000000086
:104EA00000000F000F001E001E003C003C007800B8
:104EB0007800F000F000E001E001C003C0038007CB
:104EC0008007000F000F001E001E003C003C007811
:104ED000007800F00000F007F80F7C1F3E3E1E3CFB
:104EE0001F7C1F7C0F780F780F780F780F780F7862
:104EF0000F781F7C1F7C1E3C3E3E7C1FF80FF00786
:104F000000000000000000000000F000F007F03F8B
:104F1000F03FF001F001F001F001F001F001F001CB
:104F2000F001F001F001F001F001F001F001F001F9
:104F3000FF3FFF3F00000000000000000000E00F06
:104F4000F83F7C3C3C003E003E003E003C003C0004
:104F50007C00F800F001E003C0078007000F001E8E
:104F6000003E003CFE3FFE3F00000000000000004D
:104F70000000F00FF81F7C1C3E003E003E003C008D
:104F80003C00F800F00FF80F7C003E001E001E00F1
:104F90001E001E003E007C1CF81FE01F00000000E9
:104FA0000000000000007800F800F800F801F803A5
:104FB000F807F807780F781E781E783C78787878AC
:104FC000FFFFFFFF78007800780078007800780015
:104FD00000000000000000000000FC1FFC1FFC1F80
:104FE000001E001E001E001E001EE01FF81FFC0019
:104FF0007C003E003E001E003E003E003C007C1C4B
:10500000F81FE01F00000000000000000000FC018D
:10501000FE078E0F001F001E003E003C003CF83DC6
:10502000FC3F3E7F1F7E0F3C0F3C0F3C0F3C0F3E72
:105030001F1E3E1FFC0FF0030000000000000000D8
:105040000000FF3FFF3FFF3F0F001E001E003C001F
:1050500038007800F000F000E001E001C003C00378
:105060008007800F800F000F001F001F000000004E
:10507000000000000000F807FC0F3E1F1E1E1E3E31
:105080001E3E1E1E3C1FF80FF007F80FFC1E3E3E92
:105090001F3C1F7C0F7C0F7C1F3C3E3FFC1FF0071A
:1050A00000000000000000000000F007F80F7C1E68
:1050B0003E3C1E3C1F7C1F7C1F7C1F7C1F3C3F3ED8
:1050C000FF1FEF071F001E001E003E003C00F838C7
:1050D000F03FE01F000000000000000000000000A2
:1050E00000000000000000000000E003E003E00317
:1050F000E0030000000000000000000000000000CD
:10510000E003E003E003E003000000000000000013
:105110000000000000000000000000000000E003AC
:10512000E003E003E00300000000000000000000D6
:1051300000000000E003E003E003E003E001E00121
:10514000E001C00380030000000000000000000038
:10515000000003000F003F00FC00F003C00F003F01
:1051600000FE003FC00FF003FC003F000F000300F3
:10517000000000000000000000000000000000002F
:105180000000000000000000000000000000FFFF21
:10519000FFFF000000000000FFFFFFFF0000000015
:1051A00000000000000000000000000000000000FF
:1051B0000000000000000000000000E000F8007E99
:1051C000801FE007F8017E001F007E00F801E00765
:1051D000801F007E00F800E00000000000000000DA
:1051E0000000F01FFC3F3E381F381F381E001E0015
:1051F0003C007800F000E001C003C003C007C00716
:10520000000000000000C007C007C0070000000049
:10521000000000000000F803FE0F1E1F0F3E7F3C41
:10522000FF78EF79C773C7F38FF38FF38FF39FF393
:105230009FF3FF73FF7BF779003C1C1FFC0FF80303
:10524000000000000000000000000000000000005E
:10525000E003E003F007F007F007780F780F7C0E0B
:105260003C1E3C1E3E3CFE3FFF3F1F780F780FF078
:1052700007F007F000000000000000000000000040
:1052800000000000F83FFC3F3E3C1E3C1E3C1E3C24
:105290003E3C7C3CF03FF83F7E3C1F3C1F3C0F3CBB
:1052A0000F3C1F3CFE3FF83F0000000000000000E4
:1052B0000000000000000000FF01FF07871F003E04
:1052C000003C007C00780078007800780078007C52
:1052D000007C003E003F831FFF07FF01000000002D
:1052E000000000000000000000000000F07FFC7FD4
:1052F0007E781F781F780F780F780F780F780F78E7
:105300000F780F780F781F781E787E78F87FE07F0F
:10531000000000000000000000000000000000008D
:10532000FF3FFF3F003E003E003E003E003E003E8D
:10533000FE3FFE3F003E003E003E003E003E003E7F
:10534000FF3FFF3F000000000000000000000000E1
:1053500000000000FF1FFF1F001E001E001E001E99
:10536000001E001EFF1FFF1F001E001E001E001E4D
:10537000001E001E001E001E0000000000000000B5
:105380000000000000000000FE03FF0F871F003E2A
:10539000007C007C007800F800F87FF87FF80F7838
:1053A0000F7C0F7C0F3E8F1FFF0FFE0300000000DD
:1053B0000000000000000000000000001F7C1F7CB7
:1053C0001F7C1F7C1F7C1F7C1F7C1F7CFF7FFF7F3F
:1053D0001F7C1F7C1F7C1F7C1F7C1F7C1F7C1F7CF5
:1053E00000000000000000000000000000000000BD
:1053F000FF3FFF3FE003E003E003E003E003E003DF
:10540000E003E003E003E003E003E003E003E00384
:10541000FF3FFF3F00000000000000000000000010
:1054200000000000FC1FFC1F7C007C007C007C0056
:105430007C007C007C007C007C007C007C00780090
:105440007800F838F03FC03F000000000000000086
:1054500000000000000000001F3C1E3C3C3C783C6B
:10546000F03CE03DE03FC03F803FC03FE03FF03DCB
:10547000F03C783C7C3C3E3C1F3C0F3C0000000074
:10548000000000000000000000000000003E003EA0
:10549000003E003E003E003E003E003E003E003E1C
:1054A000003E003E003E003E003E003EFF3FFF3F0C
:1054B00000000000000000000000000000000000EC
:1054C0001FF81FFC1FFC3FFE3FFE3FFE7FFF77FFE4
:1054D00077FFF7F7E7F7E7F3E7F3C7F307F007F02E
:1054E00007F007F0000000000000000000000000CE
:1054F000000000000F7C0F7C0F7E0F7F0F7F8F7FDF
:105500008F7FCF7FEF7BEF79FF79FF78FF787F7810
:105510003F783F781F781F780000000000000000EF
:105520000000000000000000F007FC1F3E3E1F7C52
:105530000F780F780FF80FF80FF80FF80FF80FF833
:105540000F780F781F7C3E3EFC1FF0070000000024
:10555000000000000000000000000000FC3FFF3FD2
:105560001F3E0F3E0F3E0F3E0F3E1F3E3F3EFC3F95
:10557000F03F003E003E003E003E003E003E003E4A
:10558000000000000000000000000000000000001B
:10559000F007FC1F3E3E1F7C0F780F780FF80FF8C6
:1055A0000FF80FF80FF80FF80F780F781F7C3E3EBA
:1055B000FC1FF8077C003F000F0003000000000004
:1055C00000000000F03FFC3F7E3C3E3C1E3C1E3C89
:1055D0003E3C3C3CFC3CF03FE03FF03DF83C7C3C3A
:1055E0003E3C1E3C1F3C0F3C000000000000000041
:1055F0000000000000000000FC07FE1F0E3E003C03
:10560000003C003C003EC01FF80FFE037F001F005F
:105610000F000F001F203E3CFC3FF01F0000000069
:10562000000000000000000000000000FFFFFFFF7E
:10563000E003E003E003E003E003E003E003E00352
:10564000E003E003E003E003E003E003E003E00342
:10565000000000000000000000000000000000004A
:105660000F7C0F7C0F7C0F7C0F7C0F7C0F7C0F7CE2
:105670000F7C0F7C0F7C0F7C0F7C1E3C1E3C3E3E43
:10568000FC1FF00700000000000000000000000008
:105690000000000007F007F007F80F780F7C1E3CB1
:1056A0001E3C1E3E3C1E3C1F781F780FF80FF00773
:1056B000F007F007E003E003000000000000000036
:1056C000000000000000000003E003F003F007F01A
:1056D000E7F3E7F3E7F3E773F77BF77FFF7F7F7F7E
:1056E0007F7F7E7F7E3F3E3E3E3E3E3E000000008E
:1056F00000000000000000000000000007F80F7C20
:105700001E3E3E3E3C1FF80FF007E007E003E003BB
:10571000F007F80F7C0F7C1E3E3C1F780F780FF0CF
:105720000000000000000000000000000000000079
:1057300007F807780F7C1E3C1E3E3C1F780FF80FC1
:10574000F007E003E003E003E003E003E003E0032D
:10575000E003E00300000000000000000000000083
:1057600000000000FF7FFF7F0F001F003E007C0055
:10577000F800F000E001E003C007800F000F001EFA
:10578000003E007CFF7FFF7F000000000000000063
:105790000000FF07800780078007800780078007D9
:1057A00080078007800780078007800780078007C1
:1057B00080078007800780078007800780078007B1
:1057C000FF07FF07000000780078003C003C001E47
:1057D000001E000F000F80078007C003C003E00118
:1057E000E001F000F000780078003C003C001E0072
:1057F0001E000F000F0007000000F07FF000F00017
:10580000F000F000F000F000F000F000F000F00018
:10581000F000F000F000F000F000F000F000F00008
:10582000F000F000F000F000F07FF07F0000C0001A
:10583000C001C001E003E003F007F0077807780F2C
:10584000380F3C1E3C1E1E3C1E3C0F380F7807785C
:105850000000000000000000000000000000000048
:105860000000000000000000000000000000000038
:105870000000000000000000000000000000000028
:10588000000000000000000000000000FFFFFFFF1C
:10589000000000000000F000000000000000000018
:1058A00000000000000000000000000000000000F8
:1058B00000000000000000000000000000000000E8
:1058C00000000000000000000000000000000000D8
:1058D000000000000000F80FFC3F7C3C3E003E0052
:1058E0003E00FE07FE1F3E3E3E7C3E783E7C7E7CB8
:1058F000FF3FCF1F00000000000000000000003C40
:10590000003C003C003C003C003CF83DFE3F3E3F7C
:105910001F3E0F3C0F3C0F3C0F3C0F3C0F3C1F3C0D
:105920001E3C3E3FFC3FF03B00000000000000003A
:105930000000000000000000000000000000FE0366
:10594000FF0F871F003E003E003C007C007C007C77
:10595000003C003E003E871FFF0FFE0300000000DA
:105960000000000000001F001F001F001F001F009C
:105970001F00FF07FF1F3F3E1F3C1F7C1F7C1F7C3B
:105980001F781F781F7C1F7C3F3C7F3EFF1FDF0F6F
:105990000000000000000000000000000000000007
:1059A000000000000000F803FC0F3E1F1E3E1F3CDD
:1059B0001F7CFF7FFF7F007C007C003C003E071FB8
:1059C000FF0FFE0300000000000000000000FF01C8
:1059D000E103C003C007C007C007FF7FFF7FC00708
:1059E000C007C007C007C007C007C007C007C0077F
:1059F000C007C007C007C00700000000000000008B
:105A00000000000000000000000000000000EF07A0
:105A1000FF1F7F3E1F3C1F7C1F7C1F781F781F7855
:105A20001F7C1F7C3F3C7F3EFF1FDF0F1E001E00C0
:105A30001E007C38F83F003C003C003C003C003C31
:105A4000003CFC3DFE3F9E3F1F3F1F3E1F3C1F3C56
:105A50001F3C1F3C1F3C1F3C1F3C1F3C1F3C1F3C6E
:105A600000000000000000000000F001F001000054
:105A7000000000000000E07FE07FE001E001E001C5
:105A8000E001E001E001E001E001E001E001E0010E
:105A9000E001E00100000000000000000000F8004C
:105AA000F8000000000000000000F83FF83FF80098
:105AB000F800F800F800F800F800F800F800F80026
:105AC000F800F800F800F800F800F800F000F071B5
:105AD000E07F003C003C003C003C003C003C1F3CA4
